:1000000022C03CC03BC03AC039C038C037C036C03F
:1000100035C034C033C032C031C030C02FC0200022
:100020006944023600D5001500154000156D5001D9
:10003000500154000156390039003900AA00390036
:100040003412C601C60111241FBECFE5D2E0DEBFC7
:10005000CDBF10E0A0E6B0E0E8E1F3E002C005901B
:100060000D92A236B107D9F720E0A2E6B0E001C0B8
:100070001D92A636B207E1F793D04CC1C1CFE091F3
:100080006400F09165006091620090916300282FF8
:1000900030E02150310980E02F3F4FEF3407E1F08D
:1000A000911106C0AF014F5F5F4F6491FA0198E074
:1000B0009150462F50E0092E02C0559547950A945D
:1000C000E2F741705527022E01C0440F0A94EAF767
:1000D000842B21503109E0CF90936300F0936500A9
:1000E000E0936400609362000895009739F022E184
:1000F00000002150E9F700000197F7CF0895CF9352
:10010000DF93EB0112BE18BE442329F022E42ABD7E
:1001100021E023BF01C0C098E8DF1ABC13BEC09A1B
:10012000CE01DF91CF91E1CF1ABC13BE88B38560B9
:1001300088BB0FB6F894A89581B5886181BD11BCC4
:100140000FBE88EE93E0D1DF80E385BF88950895E8
:10015000C29888EB9BE0C9DFC29A0895CF93C82F5D
:10016000F7DFC15029F0A89588E99AE3BEDFF8CF00
:10017000A895CF910895CF93DF93D82FC0E0CD17E6
:1001800061F0C29880E593ECB0DFA895C29A80E553
:1001900093ECABDFA895CF5FF2CFDF91CF910895BD
:1001A0007F928F929F92AF92BF92CF92DF92EF9207
:1001B000FF920F931F93CF93DF9310BE1ABC13BE11
:1001C00084B714BE98E191BD11BC95E097BB97E050
:1001D00098BB82FF03C082E0CEDFA6DF88E893E110
:1001E00084DFC6B3C1FB882780F9C1E0C82783E05C
:1001F0008C0FB4DF88EA91E678DF99E288E10FB6E8
:10020000F894A89581BD0FBE91BDC11103C0909017
:10021000610002C0909060008EE1E82E80E0F82E30
:100220009EE1C92E90E0D92E10E0191509F451C0B5
:10023000A895C11102C0F60101C0F7018591949102
:100240009093650080936400E0916400F0916500F4
:10025000CF0101969093650080936400D491D9BD3D
:100260008091640090916500FC0184903196049126
:100270003196A590B49004969093650080936400A5
:10028000712C7814C1F0802FFADE880F880F282F88
:1002900030E0F501E20FF31F85919491F901329658
:1002A000EA0DFB1D6591749141E0D11101C040E060
:1002B00026DF7394E6CF1092630088EA91E615DF9B
:1002C00047DF1F5FF2E0EF0EF11C82E0C80ED11C89
:1002D000ACCF0FB6F894A89581B5886181BD11BCEB
:1002E0000FBE8CED9FEF01DF8CED9FEFFEDE84E013
:1002F00035DF1ADF80E090E0DF91CF911F910F9101
:10030000FF90EF90DF90CF90BF90AF909F908F9035
:080310007F900895F894FFCFDF
:020318000001E2
:00000001FF
